:10000E0001030203030201031002020211020F0395
:10001E000D02110210020F030B020F030D030C034E
:10002E000D030E020102110201030F020E020D0357
:10003E000E040E020102110310030F02010302034C
:10004E00030201031002020211020F030D0211023C
:10005E0010020F030B020F020D020C030D030E0212
:10006E000F020E020F030D020F0201020302020223
:10007E000203020301020103010200001003110337
:10008E00010311030102030211020D030D031003FC
:10009E000F03100201020F020D030D030E030D03D9
:1000AE000E0301030D0201030103010311030E03ED
:1000BE000E03110311030000170316031701160395
:1000CE00170316031501100315031602160D170359
:1000DE00160315031003100E15040F011703160354
:1000EE001701160317031603150110031503160245
:1000FE00160D170316031503100315031601170328
:10010E001603170116031703160315011003150323
:10011E001602160D1703160315031003100E150401
:10012E000F0117031903190119031A0319031701F4
:10013E00160316031602160D1703160315031003E6
:10014E00100D1500190319031A031F031B031B03BC
:10015E001A03170D16031603160D170117031703AF
:10016E0019031A021A021003170D160316011703AC
:10017E0019031903170319021F021B031A031A0E80
:10018E001B0417021A031A031A0E1B041A0319036F
:10019E0017031603170D1603170319011903190375
:1001AE001A031F031B031B031A03170D1603160353
:1001BE00160317011703170319031A021A02100365
:1001CE00170D160316011703190319031703190345
:1001DE001F021B031A031A0E1B0417021A031A031B
:1001EE001A0E1B0417161A031A031A0E1B041A03EF
:1001FE001903170316030F02100315000000012048
:10020E000103010301210F030E030F03012001035C
:10021E000103012102030303020301200103010371
:10022E00022101031103010302000420040304034D
:10023E000421010311030103042004030403042118
:10024E00050306030503042004030403022002032E
:10025E000103110001200103010301210F030E030D
:10026E000F03012001030103012102030303020313
:10027E000120010301030221010311030103020006
:10028E0005200503050305210403030304030520CC
:10029E0005030503052104030303040305200503D9
:1002AE000603112005030D030201011F01200103A6
:1002BE00010301210F030E030F03012001030103AC
:1002CE0001210203030302030120010301030221A2
:1002DE00010311030103020004200403040304219B
:1002EE000103110301030420040304030421050385
:1002FE000603050304200403040302200203010382
:10030E00110001200103010301210F030E030F034E
:10031E000120010301030121020303030203012053
:10032E000103010302210103110301030200052051
:10033E000503050305210403030304030520050338
:10034E000503052104030303040305200503060327
:10035E00112005030D030201010103020602032011
:10036E00022001021103100311200D2010021102B0
:10037E000120032005020403050303200D200302C0
:10038E0006020320022001021103100311200D208A
:10039E0010021102012003200502040305030301CC
:1003AE000403040304020503050305020603060302
:1003BE000602040304030402032011200320042078
:1003CE0003201120031F0403040304020503050385
:1003DE0005020603060306020403040304021100C9
:1003EE00110011001101110211020120010301037C
:1003FE0001210F030E030F0301200103010301214D
:10040E00020303030203012001030103022101037E
:10041E001103010302000420040304030421010359
:10042E00110301030420040304030421050306033E
:10043E000503042004030403022002030103110038
:10044E0001200103010301210F030E030F030120FD
:10045E00010301030121020303030203012001032F
:10046E00010302210103110301030200052005030C
:10047E0005030521040303030403052005030503F7
:10048E0005210403030304030521040303030403EA
:10049E0005210403030304030521040303030403DA
:1004AE0005210403030304030500050105020502EB
:1004BE001F01011F011F011F011F01661103000013
:1004CE0010201003100310210D030C030D03102038
:1004DE001003100310211103010311031020100348
:1004EE0010031121100373031003110006200603DD
:1004FE000603062103030203030306200603060375
:10050E00062107031F030703062006030603072120
:10051E0006037D03060307000420040304030421DD
:10052E000103110301030420040304030421050342
:10053E00060305030420040304030220020301033F
:10054E00110001200103010301210F030E030F030C
:10055E000120010301030121020303030203012011
:10056E00010301030221010311030103020005200F
:10057E0005030503052104030303040305200503F6
:10058E0005030521040303030403052005030603E5
:10059E00112005030D030201011F012001030103B8
:1005AE0001210F030E030F0301200103010301219B
:1005BE0002030303020301200103010302210103CD
:1005CE0011030103020004200403040304210103A8
:1005DE00110301030420040304030421050306038D
:1005EE000503042004030403022002030103110087
:1005FE0001200103010301210F030E030F0301204C
:10060E00010301030121020303030203012001037D
:10061E00010302210103110301030200052005035A
:10062E000503052104030303040305200503050345
:10063E00052104030303040305200503060311200B
:10064E0005030D030201010100007E0106037E0376
:10065E001F02190118017A0116037A0318021500F8
:10066E0016011703180219031F0118017E017E03DC
:10067E001A021903180000000684060306031F035E
:10068E00070306032184030303037D037C03030393
:10069E000684060306031F03070306032101031F37
:1006AE000684060306031F030703060321840303C0
:1006BE0003037D037C0303030684060306031F0363
:1006CE00070306032101031F248424032403890343
:1006DE002403230322842003200322032103200367
:1006EE0023842303230324032303220321841F03D0
:1006FE001F03210320031F0322841B031B0320035C
:10070E001F031B0321841A031A031F031B031A035F
:10071E00188484031703210320031B031A01101FDF
:10072E0000007C030303020379031103100011037D
:10073E007902030111037902030103037C66790434
:10074E001004110011037902030111037902030150
:10075E0003037C667904100411007C037D030602FA
:10076E007D0306027C037D0306667D030666790320
:10077E007C047D0406027D0406048302070306033F
:10078E007C047D6579037C037D0306027D030602EE
:10079E007C037D0306667D0306667D027C040304EE
:1007AE0079041104100110047C0303037C03790205
:1007BE0010037903110B1171790479037C037D0306
:1007CE0006027D0306027C037D0306667D03066634
:1007DE007D027C04030479041104100110047C03CF
:1007EE000303020379021103100311010303020331
:1007FE00790311677904110306007C0303030203D6
:10080E007903110310001103790203011103790218
:10081E00030103037C6679041004110011037902AD
:10082E00030111037902030103037C6679041004AA
:10083E0011007C037D0306027D0306027C037D030B
:10084E0006667D03066679037C047D0406027D043C
:10085E0006048302070306037C047D6579037C038B
:10086E007D0306027D0306027C037D0306667D037F
:10087E0006667D027C040304790411041001100441
:10088E007C0303037C03790210037903110B1171AE
:10089E00790479037C037D0306027D0306027C0343
:1008AE007D0306667D0306667D027C0403047904DF
:1008BE001104100110047C030303020379021103D7
:1008CE001003110103030203790306040304020358
:1008DE006F030664000000010601150126013701B1
:1008EE004A015D01710188019F01B801D201EE003C
:0D08FE0002040507090B0102040810204048
:03000300013E00BB
:100FD400C2957540FF7542FF85408D85428B4389DC
:0C0FE40011D2A9C2ABC28CC28ED2AF22C7
:03000B00020FB32E
:020FB300C0E09C
:100FB500B295853F8C85418A053DE53D6464700C9D
:0C0FC500F53D053EE53E64057002F53E7A
:030FD100D0E0323B
:08090B008B0A8A0B890C8D0D8B
:10091300E4F52AC3E52A940C748094804003020909
:10092300B4E52A250DFFD3940B74809480401A7488
:10093300F42F25E024E5F582E43408F5837401936C
:1009430025E0FFE49333FE8013EF25E024E5F582F1
:10095300E43408F583E493FE740193FFE52A25E06C
:100963002412F8A60608A607E50F6401450E7018C1
:10097300E52A25E02412F8C000E6FE08E67802CE58
:10098300C313CE13D8F9801EE50F6403450E701C04
:10099300E52A25E02412F8C000E6FE08E67802C343
:1009A30033CE33CED8F9D000A60608F6052A0209BD
:1009B30016E4F535F536AB0AAA0BA90C8536828504
:1009C3003583120C96600D74022536F536E4353501
:1009D300F53580E2E4F52BF52CAB0AAA0BA90C85BF
:1009E3002C82852B83120C96F537E52C2401FFE42A
:1009F300352B8F82F583120C96F538AC10AD117E32
:100A03002E7FE0120CC38E2D8F2EE52E7802CEC3DF
:100A130013CE13D8F9F5348E337802C333CE33CEE5
:100A2300D8F9FF7C007D05120CC3C3E5349FF53470
:100A3300E5339EF533C28CD28EC3E52C9536E52B78
:100A430095354003020C93D2A7D2A6D2A5D2A4D245
:100A5300A3D2A2D2A1D2A0AF377E00EF6407701059
:100A6300C2A7C2A6C2A5C2A4C2A3C2A2C2A1C2A057
:100A7300EF64064E6006EF64054E700EC2A7C2A671
:100A8300C2A5C2A4C2A3C2A2C2A1EF64044E60065F
:100A9300EF64034E700CC2A7C2A6C2A5C2A4C2A330
:100AA300C2A2EF64024E6006EF64014E700AC2A751
:100AB300C2A6C2A5C2A4C2A3EF64114E6006EF642E
:100AC300104E7008C2A7C2A6C2A5C2A4EF640F4EFF
:100AD3006006EF640E4E7006C2A7C2A6C2A5EF64FD
:100AE3000D4E6006EF640C4E7004C2A7C2A6EF64FD
:100AF3000B4E7002C2A7E53775F00A8485F039E51D
:100B03003775F00A8475F00A84ADF0E53775F06443
:100B130084FFE5399008FC932F25E02412F8E6FEC4
:100B230008E6FFE539604BED6401700BEF7802CE08
:100B3300C313CE13D8F9FFED6403700BEF7802C330
:100B430033CE33CED8F9FFAB07AA06E4F9F87F50CA
:100B53007EC3FDFC120F4BE47B0AFAF9F8120D1861
:100B6300C3E49FFFE49EF53F8F41F58CE541240CE0
:100B7300F58AE53875F00A84E5F090090493F53AAF
:100B8300E53875F00A8475F00A8485F03BE538751D
:100B9300F06484F53CE53AFD7C00AE2DAF2E120CDB
:100BA300C3AB07AA06E53C6401700BEAC313FEEB73
:100BB300132BFBEE3AFAAF3BEF64016040EF703268
:100BC300D3E53A940474809480500DC3EB9534F5C7
:100BD30030EA9533F52F8029AE02EB7802C333CE8A
:100BE30033CED8F9FF7C007D05120CC38E2F8F30D6
:100BF300800FEAC313F52FEB13F53080048A2F8B94
:100C030030AF397E00EF7004F52FF530C3EB95302C
:100C1300F532EA952FF531EF4E601FD28C85302ADD
:100C2300D3E52A940074809480400F308FFD854073
:100C33008D85428BC28F152A80E6E53245316021CE
:100C4300C28CC29585322AD3E52A9400748094809D
:100C5300400F308FFD85408D85428BC28F152A80D2
:100C6300E67402252CF52CE4352BF52BAB0AAA0BE5
:100C7300A90C852C82F583120C96F537E52C2401FB
:100C8300FFE4352B8F82F583120C96F538020A3C6C
:020C9300C29508
:010C9500223C
:040F8F007F327E002F
:100F9300E4FDFCC3ED9FEC9E5015E4FBFA0BBB0094
:0F0FA300010AEB64784A70F50DBD00010C80E483
:010FB200221C
:100EC100120FD4C29020B10C120F8F20B1067508F9
:100ED1000075090120B00C120F8F20B006750800B3
:100EE10075090220B20C120F8F20B2067508007529
:100EF1000903E50870CFE50924FE601B1460312465
:100F01000270C27BFF7A00790E750E00750F0375B2
:100F110010017511F480127BFF7A00798A750E0039
:100F2100750F03751001751168E4FD12090B8095A9
:100F31007BFF7A067958750E00750F0375100175E0
:0A0F41001168E4FD12090B020EC650
:03000000020E35B8
:0C0E3500787FE4F6D8FD758142020E7C47
:100C9600BB010CE58229F582E5833AF583E0225013
:100CA60006E92582F8E622BBFE06E92582F8E2225D
:0D0CB600E58229F582E5833AF583E4932277
:100CC300BC000BBE0029EF8DF084FFADF022E4CC15
:100CD300F875F008EF2FFFEE33FEEC33FCEE9DECDE
:100CE300984005FCEE9DFE0FD5F0E9E4CEFD22ED24
:100CF300F8F5F0EE8420D21CFEADF075F008EF2F6E
:100D0300FFED33FD4007985006D5F0F222C398FD5E
:050D13000FD5F0EA22FB
:100D1800E88FF0A4CC8BF0A42CFCE98EF0A42CFC7A
:100D28008AF0EDA42CFCEA8EF0A4CDA8F08BF0A4F8
:100D38002DCC3825F0FDE98FF0A42CCD35F0FCEB57
:100D48008EF0A4FEA9F0EB8FF0A4CFC5F02ECD391C
:0F0D5800FEE43CFCEAA42DCE35F0FDE43CFC2289
:100F4B00C2D5E830E70FB2D5E4C39BFBE49AFAE4D1
:100F5B0099F9E498F8EC30E717B2D5120F81120D1E
:100F6B00A3E4C39BFBE49AFAE499F9E498F88003B1
:100F7B00120DA330D50DE4C39FFFE49EFEE49DFD4F
:040F8B00E49CFC22C4
:100E4100020EC1E493A3F8E493A34003F68001F2F8
:100E510008DFF48029E493A3F85407240CC8C333B2
:100E6100C4540F4420C8834004F456800146F6DF81
:100E7100E4800B0102040810204080900003E47E0E
:100E8100019360BCA3FF543F30E509541FFEE49376
:100E9100A360010ECF54C025E060A840B8E493A33D
:100EA100FAE493A3F8E493A3C8C582C8CAC583CA68
:100EB100F0A3C8C582C8CAC583CADFE9DEE780BE20
:0100060000F9
:100D670075F008758200EF2FFFEE33FECD33CDCC43
:100D770033CCC58233C5829BED9AEC99E5829840C6
:100D87000CF582EE9BFEED9AFDEC99FC0FD5F0D6A3
:100D9700E4CEFBE4CDFAE4CCF9A88222B800C1B9CD
:100DA7000059BA002DEC8BF084CFCECDFCE5F0CB0B
:100DB700F97818EF2FFFEE33FEED33FDEC33FCEB44
:100DC70033FB10D703994004EB99FB0FD8E5E4F9FF
:100DD700FA227818EF2FFFEE33FEED33FDEC33FCEC
:100DE700C933C910D7059BE99A4007EC9BFCE99AE0
:100DF700F90FD8E0E4C9FAE4CCFB2275F010EF2F25
:100E0700FFEE33FEED33FDCC33CCC833C810D70724
:100E17009BEC9AE899400AED9BFDEC9AFCE899F85F
:0E0E27000FD5F0DAE4CDFBE4CCFAE4C8F922F2
:00000001FF
